:100000000C944D000C942A0D0C942A0D0C942A0D7E
:100010000C942A0D0C942A0D0C942A0D0C942A0D84
:100020000C942A0D0C942A0D0C942A0D0C942A0D74
:100030000C942A0D0C942A0D0C942A0D0C942A0D64
:100040000C9435070C942A0D0C942A0D0C942A0D4F
:100050000C942A0D0C942A0D0C942A0D0C942A0D44
:100060000C942A0D0C942A0D018E019080019001B0
:100070009280017C0186001AD8016C017C001AC8AC
:100080000186018B001AE20100016C001A5C018BF1
:10009000018E001AE7019201948011241FBECFEF58
:1000A000D8E0DEBFCDBFE8E6F0E040E017C0B59194
:1000B000A59135912591059107FD0CC095918591EC
:1000C000EF01F92FE82F05900D92A217B307D9F78A
:1000D000FE0104C01D92A217B307E1F7EA39F40745
:0E00E00031F70E941A0D0C947500F894FFCFB2
:1000EE00982F9770869586958695813031F160F0C0
:1000FE00823049F4613009F481C06623B9F162306F
:10010E0009F45EC008950895613009F46BC066234A
:10011E00D9F16230B9F744B121E030E0B90102C043
:10012E00660F771F9A95E2F7CB01962F9095942341
:10013E0094B995B1892B85B90895613009F46AC0D7
:10014E00662381F16230F1F647B121E030E0B9016A
:10015E0002C0660F771F9A95E2F7CB01962F909506
:10016E00942397B998B1892B88B908954AB121E0A3
:10017E0030E0B90102C0660F771F9A95E2F7CB0106
:10018E00809584238AB9089544B121E030E0B90105
:10019E0002C0660F771F9A95E2F7CB0180958423F4
:1001AE0084B9089547B121E030E0B90102C0660F6D
:1001BE00771F9A95E2F7CB018095842387B908952E
:1001CE004AB121E030E0B90102C0660F771F9A955F
:1001DE00E2F7CB01962F909594239AB99BB1892B78
:1001EE008BB9089544B121E030E0B90102C0660F29
:1001FE00771F9A95E2F7CB01842BD2CF4AB121E03B
:10020E0030E0B90102C0660F771F9A95E2F7CB0175
:10021E00842BB8CF47B121E030E0B90102C0660FA0
:0C022E00771F9A95E2F7CB01842BC8CF14
:10023A00CF93C42F8F31910508F058C08FE190E019
:10024A009093910180939001662309F45CC0613018
:10025A0009F472C061E082E00E94770061E081E007
:10026A000E94770080918000CC2309F45EC08F7CC5
:10027A00806280938000809180008F738068809371
:10028A008000809180008C7F8260809380008091C2
:10029A0081008861809381002091900130919101C1
:1002AA0040E050E060E074E284EF90E00E948C0944
:1002BA00CA01B9010E94BD0620E030E040E05EE3D9
:1002CA000E94230D0E94760860938E0170938F011D
:1002DA007093870080918E018093860080918100BF
:1002EA00887F826080938100CF910895813A2FE0C0
:1002FA00920708F4A5CF80EA9FE09093910180933A
:10030A0090016111A4CF61E081E00E9477008091A1
:10031A008000CC2301F18F738068809380008091E4
:10032A0080008F7C8093800095CF806380938000CB
:10033A0080918000806CA3CF82E00E947700809138
:10034A008000CC2351F08F7C806280938000809162
:0E035A0080008F7394CF806CE0CF8063F6CF6D
:10036800982F9770869586958695813001F160F073
:10037800823049F4613009F470C0662359F1623063
:1003880009F452C008950895613009F45AC06623EB
:1003980079F16230B9F745B121E030E0B90102C026
:1003A800660F771F9A95E2F7CB0184272DC061303D
:1003B80009F460C0662351F1623021F748B121E0A9
:1003C80030E0B90102C0660F771F9A95E2F7CB01BA
:1003D800842728C04BB121E030E0B90102C0660F84
:1003E800771F9A95E2F7CB01809584238BB90895FE
:1003F80045B121E030E0B90102C0660F771F9A9538
:10040800E2F7CB018095842385B9089548B121E0AE
:1004180030E0B90102C0660F771F9A95E2F7CB0169
:100428008095842388B908954BB121E030E0B90163
:1004380002C0660F771F9A95E2F7CB0184278BB924
:10044800D6CF45B121E030E0B90102C0660F771F71
:100458009A95E2F7CB01842BD7CF4BB121E030E05E
:10046800B90102C0660F771F9A95E2F7CB01842B7A
:100478008BB9BDCF48B121E030E0B90102C0660FA9
:0C048800771F9A95E2F7CB01842BCCCFB4
:10049400AF92BF92CF92DF92FF920F931F93CF93AD
:1004A400DF93CDB7DEB72A970FB6F894DEBF0FBE41
:1004B400CDBF41E061E089E091E00E94FF0841E0A6
:1004C40062E080E20E94540BF12C0E947C0B843485
:1004D40091F029E02F1508F043C02AE0F212F5CF7D
:1004E40041E062E087E391E00E94FF0841E062E0BE
:1004F40087E291E0E2CF83E08F15F0F5CE0101961B
:100504006C01AA24AA94AF0CB12C93E0A90EB11CDF
:1005140002E010E0F60161916F01C8010E94BE0C77
:100524000F5F1F4F0A151B05A9F760EE80E090E0EE
:100534000E94BE0C6F2D81E090E00E94BE0C2A96B2
:100544000FB6F894DEBF0FBECDBFDF91CF911F91E0
:100554000F91FF90DF90CF90BF90AF900C94A10CBF
:10056400E1E0F0E0EC0FFD1FEF0DF11D8083F3944B
:100574008AE20E942C0DA9CF41E062E088E191E07B
:100584000E94FF089FEFE3EDF0E39150E040F0405C
:08059400E1F700C00000AACF4E
:10059C00CF93DF93CDB7DEB727970FB6F894DEBFB6
:1005AC000FBECDBF2FEF81EE94E0215080409040E4
:1005BC00E1F700C0000061E087E10E94770060E095
:1005CC0086E10E94770060E087E10E94B40180E838
:1005DC0095E20E9431060E94210C2FEF81EE94E0EF
:1005EC00215080409040E1F700C0000061E087E1BD
:1005FC000E94B40125E32A95F1F7000060E087E141
:10060C000E94B4010E94150D86E10E946A0988239C
:10061C00D9F30E94B50C86E10E946A098130D9F3A6
:10062C000E94FD0C0E94D40C969587959695879503
:10063C00BC0180E090E00E94BD062EED33E947E05E
:10064C005DE30E94230D0E947608DC01CB014AE099
:10065C0050E0BE016F5F7F4F0E94780CCE01019677
:10066C000E94690B8AE00E94C60C8DE00E94C60CA9
:10067C008FEF9BE722E9815090402040E1F7B4CF07
:10068C000F931F93CF93DF938C01EB01188241E002
:10069C0061E085E491E00E94FF0841E062E080E2C5
:1006AC000E94540B0E947C0B843429F198819A305F
:1006BC0008F440C09A30B1F741E062E087E391E082
:1006CC000E94FF0841E062E087E291E00E94FF088F
:1006DC0041E062E080E20E94540B2FEF83ED90E347
:1006EC00215080409040E1F700C0000018820E9429
:1006FC007C0B8434D9F68881843038F541E062E093
:10070C0088E191E00E94FF082FEF83ED90E32150E8
:10071C0080409040E1F700C0000041E062E087E2D9
:10072C0091E00E94FF0841E062E080E20E94540BDD
:10073C001882DDCFF801E90FF11D808388818F5F6E
:10074C0088838AE20E942C0DADCF0E94A10C0E94DE
:0E075C00A10C81E0DF91CF911F910F910895C4
:10076A000E94E90C38F00E94F00C20F0952311F059
:10077A000C940F0D0C94270D11240C94E30C0E9479
:10078A00AE0970F3959FC1F3950F50E0551F629F14
:10079A00F001729FBB27F00DB11D639FAA27F00DD0
:1007AA00B11DAA1F649F6627B00DA11D661F829FF7
:1007BA002227B00DA11D621F739FB00DA11D621FDC
:1007CA00839FA00D611D221F749F3327A00D611DF9
:1007DA00231F849F600D211D822F762F6A2F1124DB
:1007EA009F5750409AF0F1F088234AF0EE0FFF1F0E
:1007FA00BB1F661F771F881F91505040A9F79E3F65
:10080A00510580F00C940F0D0C94E30C5F3FE4F358
:10081A00983ED4F3869577956795B795F795E795BA
:10082A009F5FC1F7FE2B880F911D9695879597F9C3
:02083A0008951F
:10083C00CF93DF93CDB7DEB765970FB6F894DEBFD5
:10084C000FBECDBF1D8A2FEF85EA9EE02150804060
:10085C009040E1F700C000000E944F0A80E090E059
:10086C000E94DB0C803E11F40E944A02CE010B96D2
:10087C000E94A508F82E0FEF080F10E00F5F1F4F16
:10088C0081E090E08C0F9D1F080F191FBE016B5E5D
:10089C007F4FCE0101960E9446038823B9F38D89C0
:1008AC00F816A1F00E94A10C41E062E086E691E00E
:1008BC000E94FF089FEF23ED80E391502040804081
:1008CC00E1F700C000000E94A10CE0CFFF2081F0F6
:1008DC009B8589819813E6CFFE013296DE011C962A
:1008EC0004C091918D919813DDCFE017F107C9F7F2
:0E08FC000E94A10C41E062E085E591E0D9CFB9
:10090A00CF93C82F60E080E00E94B401C4FB662741
:10091A0060F982E00E94B401C5FB662760F983E0B2
:10092A000E94B401C6FB662760F984E00E94B40104
:10093A006C2F661F6627661F85E00E94B40161E07E
:10094A0081E00E94B40182E08A95F1F700C060E07C
:10095A0081E00E94B4018FE891E00197F1F700C0AD
:10096A0000006C2F617082E00E94B401C1FB66270F
:10097A0060F983E00E94B401C2FB662760F984E053
:10098A000E94B401C3FB662760F985E00E94B401A6
:10099A0061E081E00E94B40192E09A95F1F700C00B
:1009AA0060E081E00E94B4018FE891E00197F1F7DD
:0809BA0000C00000CF91089578
:1009C200CF93C82F61E080E00E94B401C4FB662788
:1009D20060F982E00E94B401C5FB662760F983E0FA
:1009E2000E94B401C6FB662760F984E00E94B4014C
:1009F2006C2F661F6627661F85E00E94B40161E0C6
:100A020081E00E94B40182E08A95F1F700C060E0C3
:100A120081E00E94B4018FE891E00197F1F700C0F4
:100A220000006C2F617082E00E94B401C1FB662756
:100A320060F983E00E94B401C2FB662760F984E09A
:100A42000E94B401C3FB662760F985E00E94B401ED
:100A520061E081E00E94B40192E09A95F1F700C052
:100A620060E081E00E94B4018FE891E00197F1F724
:080A720000C00000CF910895BF
:100A7A0061E080E00E94770061E081E00E947700F7
:100A8A0061E082E00E94770061E083E00E947700E3
:100A9A0061E084E00E94770061E085E00E947700CF
:100AAA0060E081E00E94B4012FEF89EF90E02150CD
:100ABA0080409040E1F700C0000083E00E944508B2
:100ACA008FE19EE40197F1F700C0000083E00E94E5
:100ADA0045088FE193E00197F1F700C0000083E039
:100AEA000E94450882E00E94450888E20E94850427
:100AFA0087EC90E00197F1F700C0000088E00E94BF
:100B0A00850481E00E94850486E00E9485048FE3C3
:100B1A009CE90197F1F700C000008CE00C94850471
:100B2A00CF93C82F8CB5411126C0877F8CBD8CB559
:100B3A00611126C08F7E8CBDC73031F161E083E040
:100B4A000E94770061E085E00E94770060E084E01F
:100B5A000E9477008CB580618CBD8DB5C43060F180
:100B6A0081608DBD8CB5C82BCC7FCCBD8CB5806423
:100B7A008CBDCF91089588608CBD8CB56623D1F267
:100B8A0080618CBDC730D1F660E083E00E947700B7
:100B9A0060E085E00E94770060E082E00E947700D2
:100BAA0061E084E00E9477008CB58F7E8CBD8CB5A5
:100BBA0080648CBDCF9108958E7F8DBD8CB58C7F5E
:040BCA00C82BD3CF92
:100BCE00CF92DF92EF92FF921F93CF93DF93182F66
:100BDE00EB0160918E0170918F0180E090E00E9498
:100BEE00BD0620E030E040E05BE30E94230D6B0188
:100BFE007C01BE0180E090E00E94BD069B01AC012D
:100C0E00C701B6010E94230D0E9476081123B1F090
:100C1E00113041F0DF91CF911F91FF90EF90DF9057
:100C2E00CF90089570938B0060938A00DF91CF91DF
:100C3E001F91FF90EF90DF90CF90089570938900F1
:100C4E0060938800DF91CF911F91FF90EF90DF901E
:040C5E00CF90089596
:100C6200CF93DF939C01E2ECF0E080818F7D808363
:100C720080818F7E80838081877F8083C1ECD0E0FA
:100C820088818B7F88838081846080838081826079
:100C92008083E0ECF0E080818D7F8083C901A0E059
:100CA200B0E0880F991FAA1FBB1F880F991FAA1FA8
:100CB200BB1F9C01AD01220F331F441F551F220F82
:100CC200331F441F551F60E074E284EF90E00E94DE
:100CD2008C09215031093093C5002093C4008881CA
:100CE20080618883888188608883DF91CF910895AD
:100CF2001F93CF93DF93EB01142F880F81600E9423
:100D0200D009813029F080E0DF91CF911F910895C1
:100D1200612F70E0615071091616170654F540E014
:100D220020E030E054ECFE01E20FF31F5093BC00D0
:100D32009091BC0097FFFCCF9091BB0090834F5FD6
:100D4200242F30E02617370774F3FE01E20FF31F5A
:100D520094E89093BC009091BC0097FFFCCF9091D7
:100D6200BB00908394E99093BC00DF91CF911F91D7
:080D7200089520E030E0E9CF14
:100D7A00E89409C097FB3EF490958095709561952B
:100D8A007F4F8F4F9F4F9923A9F0F92F96E9BB27E1
:100D9A009395F695879577956795B795F111F8CF5D
:100DAA00FAF4BB0F11F460FF1BC06F5F7F4F8F4FC8
:100DBA009F4F16C0882311F096E911C0772321F0BE
:100DCA009EE8872F762F05C0662371F096E8862F56
:100DDA0070E060E02AF09A95660F771F881FDAF7AD
:0A0DEA00880F9695879597F90895F4
:100DF40062E083E10E94770061E081E10E94770074
:100E040060E080E10E94770080E895E20E9431066C
:100E14002FEF83E294EF215080409040E1F700C02F
:100E240000000E94100A0E94F70C8823E1F30E943C
:100E3400CD0C8C3479F038F4823479F0863499F717
:100E44000E94C10BF0CF823559F0833561F70E94BF
:100E5400010CE9CF0E94F10BE6CF0E94D10BE3CF46
:060E64000E94E10BE0CF4B
:100E6A001F920F920FB60F9211242F933F934F9315
:100E7A005F936F937F938F939F93AF93BF93EF93F8
:100E8A00FF9380919201909193010196909393011F
:100E9A00809392018091920190919301883E9340B0
:100EAA0040F062E080E00E94B40110929301109237
:100EBA009201FF91EF91BF91AF919F918F917F9195
:100ECA006F915F914F913F912F910F900FBE0F90AD
:040EDA001F901895B8
:100EDE001F93CF93DF93162FD72FC42F880F0E9407
:100EEE00D009813029F080E0DF91CF911F910895D4
:100EFE00CC23D9F0E12FFD2FC1502C2F30E02F5FE6
:100F0E003F4F2E0F3F1F44E891919093BB004093AB
:100F1E00BC009091BC0097FFFCCF9091B900987FD8
:100F2E00983151F4E217F30779F794E99093BC00E6
:100F3E00DF91CF911F91089580E094E99093BC00CA
:020F4E00F7CFDB
:100F50000F931F93CF9307E811E08EE0C0E00E944B
:100F6000C40A80E10E946A09811106C080E08C0FEA
:100F7000CF911F910F91089581E10E946A0981111B
:100F800002C084E0F4CF82E10E946A09811102C0AC
:100F900088E0EDCF83E10E946A09811102C08CE0F4
:100FA000E6CFCF5FC43021F0F80181918F01D7CF18
:0A0FB0008FEFCF911F910F9108956C
:100FBA00CF93DF93CDB7DEB72A970FB6F894DEBF8B
:100FCA000FBECDBF61E081E10E94770060E080E161
:100FDA000E9477000E94AA0A80E895E20E943106E0
:100FEA0080E00E94120B4AE050E0BE016F5F7F4F23
:100FFA000E94620CCE0101960E94690B8BE891E077
:10100A000E94690B2FEF83ED90E3215080409040BE
:08101A00E1F700C00000E4CF83
:1010220061E08CE00E94770061E08DE00E94770031
:1010320080EA96E80E942F0C2FEF85EA9EE021506D
:1010420080409040E1F700C0000082EA0E94D0098F
:1010520082E00E948E0B8AEA0E948E0B0E941F0D74
:101062002FEF81EE94E0215080409040E1F700C0E4
:10107200000080EA0E94D00982E00E948E0B8AEA78
:081082000E948E0B0C941F0D5F
:10108A00CF93C82F60E080E00E94B4016C2F61709A
:10109A0082E00E94B401C1FB662760F983E00E94E6
:1010AA00B401C2FB662760F984E00E94B401C3FB65
:1010BA00662760F985E00E94B40161E081E00E9440
:1010CA00B40182E08A95F1F700C060E081E00E94F5
:1010DA00B4018FE891E00197F1F700C00000CF91C9
:0210EA00089567
:1010EC000E94B60988F09F5798F0B92F9927B751ED
:1010FC00B0F0E1F0660F771F881F991F1AF0BA95B0
:10110C00C9F714C0B13091F00E94E20CB1E008951F
:10111C000C94E20C672F782F8827B85F39F0B93F11
:10112C00CCF3869577956795B395D9F73EF4909562
:0E113C008095709561957F4F8F4F9F4F08955E
:10114A00DF92EF92FF920F931F93CF93DF93D82FE3
:10115A00C92F81E090E00E94DB0CD82E8823A9F0E9
:10116A000D2F1C2FEE24EA94E80EF12C83E0E80EF2
:10117A00F11CC2E0D0E0CE010E94DB0CF8018193A1
:10118A008F012196CE15DF05B1F78D2DDF91CF9115
:0C119A001F910F91FF90EF90DF900895DF
:1011A600CF93C82F682F617080E10E94B401C1FB04
:1011B600662760F981E10E94B401C2FB662760F9E7
:1011C60082E10E94B401C3FB662760F983E10E94B5
:1011D600B401C4FB662760F984E10E94B401C5FB33
:1011E600662760F985E10E94B401C6FB662760F9AF
:0811F60086E1CF910C94B401D5
:1011FE000F931F93CF938C01842F90E4699F800DE2
:10120E001124815480680E948504EFE8F1E0319743
:10121E00F1F700C00000F8018081882351F0C0E092
:10122E000E94E104CF5FF801EC0FF11D8081811166
:0A123E00F7CFCF911F910F91089593
:1012480062E080E10E94770062E081E10E9477001D
:1012580062E082E10E94770062E083E10E94770009
:1012680061E084E10E94770061E085E10E947700F7
:1012780061E086E10E94770061E087E10E947700E3
:061288008FE00C94C40A83
:10128E002FEF81EE94E0215080409040E1F700C0B6
:10129E00000061E080E00E94770040E060E083E0C3
:1012AE000E94950562E080E00E94B40180E50E94F4
:1012BE00030D2FEF83ED90E3215080409040E1F736
:0612CE0000C00000EFCF9C
:1012D400482F47708695869586958130C9F0B0F081
:1012E400823091F429B181E090E0042E02C0880F8D
:1012F400991F0A94E2F730E08223932302C0959564
:1013040087954A95E2F7089580E0089523B1EBCFDD
:0413140026B1E9CF46
:10131800A1E21A2EAA1BBB1BFD010DC0AA1FBB1FF1
:10132800EE1FFF1FA217B307E407F50720F0A21B63
:10133800B30BE40BF50B661F771F881F991F1A94D0
:1013480069F760957095809590959B01AC01BD01FA
:04135800CF01089524
:10135C0057FD9058440F551F59F05F3F71F047955A
:10136C00880F97FB991F61F09F3F79F0879508953F
:10137C00121613061406551FF2CF4695F1DF08C05E
:10138C00161617061806991FF1CF8695710561057B
:04139C000894089514
:1013A00094EA9093BC009091BC0097FFFCCF909181
:1013B000B900987F983011F080E008958093BB00C9
:1013C00084E88093BC008091BC0087FFFCCF8091B3
:1013D000B900887F883111F0803471F781E0089579
:1013E00090917C00907F892B80937C0080917A0083
:1013F000806480937A0080917A0086FDFCCF6091B2
:1014000078008091790070E0782B80E090E00E9475
:10141000BD0620E030E040EA5BE30E94230D089522
:1014200061E087E10E94770061E086E10E94770039
:1014300061E085E10E94770061E084E10E9477002D
:1014400060E087E10E94B40160E086E10E94B4019F
:1014500060E085E10E94B40160E084E10C94B40195
:1014600061E080E10E94770061E081E10E94770005
:1014700061E082E10E94770061E083E10E947700F1
:1014800061E084E10E94770061E085E10E947700DD
:0E14900061E086E10E94770080E00C94D308B2
:10149E000E9424090E943D0541E061E080E091E058
:1014AE000E94FF082FEF89E698E12150804090407E
:1014BE00E1F700C000000E94A10C2FEF89E698E131
:0E14CE00215080409040E1F700C000000895DA
:1014DC004423C1F0FC013081FB012081321314C084
:1014EC00FC013196DB011196415050E04F5F5F4F8C
:1014FC00480F591F04C021919D91291305C0E41771
:0C150C00F507C9F781E0089580E008951C
:10151800CF93DF9341E062E082E390E00E941D01F7
:10152800C2E1D0E0BE0180E00E94E7052FEF83ED25
:1015380090E3215080409040E1F700C000002196E0
:0C154800CF33D10579F7DF91CF910895E2
:10155400EAE7F0E080818068808380818460808312
:10156400808182608083808181608083ECE7F0E009
:1015740080818F77808380818064808380818F7D68
:0415840080830895C3
:10158800CF93C82F682F617084E10E94B401C1FB1A
:10159800662760F985E10E94B401C2FB662760F9FD
:1015A80086E10E94B401C3FB662760F987E1CF9109
:0415B8000C94B401DA
:1015BC002FEF81EE94E0215080409040E1F700C085
:1015CC00000061E080E00E94770061E080E00E9412
:1015DC00B40140E060E083E00E94950580E094E077
:0415EC000C943E0B12
:1015F000BB27FB015527AA27880F991FAA1FA417ED
:1016000010F0A41B83955051B9F7A05DAA3308F0E0
:10161000A95DA193009779F7B111B1931192CB0114
:041620000C94110C09
:1016240090917C00907F892B80937C0080917A003C
:10163400806480937A0080917A0086FDFCCF80914B
:0C16440078002091790090E0922B08952E
:101650000F931F93CF93FC018081882359F08F0152
:10166000C0E00E94E104CF5FF801EC0FF11D808122
:0C1670008111F7CFCF911F910F910895C9
:10167C00CF93DF93D82FC92F60E080E00E94B40194
:10168C008C2F8F7080630E94030D8D2F0E94030D91
:0C169C0061E080E0DF91CF910C94B4017C
:1016A800CF93C82F842F90E4699F800D1124815413
:1016B80080680E9485048FE891E00197F1F700C0E7
:0A16C80000008C2FCF910C94E10478
:1016D200DC012C91222371F030E09091C00095FF43
:1016E200FCCF2093C6003F5FFD01E30FF11D208177
:0616F2002111F3CF089561
:1016F800CF930E94A8078F3FE1F3E82F880FFF0BD5
:10170800E459FE4FC0810E94A8078F3FE1F78C2F54
:04171800CF910895D0
:10171C008093BB0084E88093BC008091BC0087FF61
:10172C00FCCF9091B900987F81E0983109F080E06E
:02173C0008950E
:10173E0061E080E00E94770080916E00816080936E
:10174E006E0085B5887F836085BD8FB780688FBF3B
:02175E00FFCFBB
:10176000092E0394000C11F4882352F0BB0F40F4AF
:10177000BF2B11F460FF04C06F5F7F4F8F4F9F4FEF
:021780000895CA
:1017820060E087E10E94B40161E086E10E94B40159
:1017920060E085E10E94B40161E084E10C94B4014F
:1017A20061E087E10E94B40160E086E10E94B40139
:1017B20061E085E10E94B40160E084E10C94B4012F
:1017C20061E087E10E94B40160E086E10E94B40119
:1017D20060E085E10E94B40161E084E10C94B4010F
:1017E20060E087E10E94B40161E086E10E94B401F9
:1017F20061E085E10E94B40160E084E10C94B401EF
:1018020060E087E10E94B40160E086E10E94B401D9
:1018120060E085E10E94B40160E084E10C94B401CF
:10182200DC01FC01672F71917723E1F7329704C045
:101832007C916D9370836291AE17BF07C8F30895D0
:1018420010928000E1E8F0E080818F7E80838081C9
:0C185200877F80838081887F80830895D9
:10185E00E9EBF0E080818C7F808388E48093B80090
:0C186E00ECEBF0E0808184608083089542
:10187A000E94A8078F3F39F0E82F880FFF0BE45921
:0A188A00FE4F808108958BE208955F
:10189400813041F028F0823011F46AB90895089536
:0818A40064B9089567B90895C5
:1018AC00813041F028F0823011F46BB9089508951D
:0818BC0065B9089568B90895AB
:1018C4004532510520F4423010F00C946D0CFB01AC
:0618D4001082CB01089513
:1018DA00BB274A3031F4992322F4BDE290958195D1
:0618EA009F4F0C94F90A67
:1018F0004532510520F4423010F00C94F80AFB01F7
:061900001082CB010895E6
:1019060084EC8093BC008091BC0087FFFCCF809163
:04191600BB00089575
:10191A0084E88093BC008091BC0087FFFCCF809153
:04192A00BB00089561
:10192E008A3008F00895E82FF0E0E458FE4F8081E9
:04193E000C94D3082A
:1019420081E00E9485048FE39FE10197F1F700C0D7
:0419520000000895F4
:1019560080E090E00E94DB0C91E0803E09F090E090
:04196600892F089528
:10196A00E1E8F0E080819081887F8260892B808322
:02197A000895CE
:10197C00F999FECF92BD81BD60BDFA9AF99A08958E
:0E198C009091C00095FFFCCF8093C600089597
:0E199A008091C00087FFFCCF8091C6000895A9
:0E19A800809184002091850090E0922B08959C
:0E19B600F999FECF92BD81BDF89A80B50895D3
:0E19C400E894BB2766277727CB0197F9089593
:0E19D20000240A941616170618060906089532
:0E19E00000240A941216130614060506089534
:0C19EE008091C000881F8827881F089582
:0C19FA00E1E8F0E08081887F80830895A0
:0C1A06008EBD0DB407FEFDCF8EB5089517
:0C1A12008EBD0DB407FEFDCF8EB508950B
:0C1A1E0097F99F6780E870E060E0089591
:0A1A2A0010928500109284000895C8
:0A1A34000E949F0B80E090E00895EF
:081A3E0084E98093BC000895C7
:081A46000E94C4030C94B00BD4
:061A4E009FEF80EC0895FB
:041A54000C940000EE
:041A58000C94E10405
:101A5C004B6579205361666500456E746572204E46
:101A6C0065772050617373007061737320746F6FAE
:101A7C002073686F727400202020202020202020EA
:101A8C00202020202020007061737320746F6F2041
:101A9C006C6F6E6700456E74657220796F7572207D
:101AAC005061737300636F7272656374207061733D
:0C1ABC0073776F7264004552524F520065
:101AC8003132334134353642373839432A302344AA
:0A1AD8003F065B4F666D7D077F6FD0
:051AE2000E0D0B070FC3
:031AE7000A0D00E5
:00000001FF
