:100000000C9442000C94CD080C94CD080C94CD08AF
:100010000C94CD080C94CD080C94CD080C94CD080C
:100020000C94CD080C94CD080C94CD080C94CD08FC
:100030000C94CD080C94CD080C94CD080C94CD08EC
:100040000C94CD080C94CD080C94CD080C94CD08DC
:100050000C94CD080C94CD080C94CD080C94CD08CC
:100060000C94CD080C94CD08017C018600121E0171
:100070006C017C00120E0186018B00122801000128
:100080006C0011A211241FBECFEFD8E0DEBFCDBFA0
:10009000E8E6F0E040E017C0B591A59135912591D3
:1000A000059107FD0CC095918591EF01F92FE82F7F
:1000B00005900D92A217B307D9F7FE0104C01D9257
:1000C000A217B307E1F7E438F40731F70E94C1083B
:0800D0000C946A00F894FFCFC4
:1000D800982F9770869586958695813031F160F0D6
:1000E800823049F4613009F481C06623B9F1623085
:1000F80009F45EC008950895613009F46BC0662361
:10010800D9F16230B9F744B121E030E0B90102C059
:10011800660F771F9A95E2F7CB01962F9095942357
:1001280094B995B1892B85B90895613009F46AC0ED
:10013800662381F16230F1F647B121E030E0B90180
:1001480002C0660F771F9A95E2F7CB01962F90951C
:10015800942397B998B1892B88B908954AB121E0B9
:1001680030E0B90102C0660F771F9A95E2F7CB011C
:10017800809584238AB9089544B121E030E0B9011B
:1001880002C0660F771F9A95E2F7CB01809584230A
:1001980084B9089547B121E030E0B90102C0660F83
:1001A800771F9A95E2F7CB018095842387B9089544
:1001B8004AB121E030E0B90102C0660F771F9A9575
:1001C800E2F7CB01962F909594239AB99BB1892B8E
:1001D8008BB9089544B121E030E0B90102C0660F3F
:1001E800771F9A95E2F7CB01842BD2CF4AB121E051
:1001F80030E0B90102C0660F771F9A95E2F7CB018C
:10020800842BB8CF47B121E030E0B90102C0660FB6
:0C021800771F9A95E2F7CB01842BC8CF2A
:10022400982F9770869586958695813001F160F0B8
:10023400823049F4613009F470C0662359F16230A8
:1002440009F452C008950895613009F45AC0662330
:1002540079F16230B9F745B121E030E0B90102C06B
:10026400660F771F9A95E2F7CB0184272DC0613082
:1002740009F460C0662351F1623021F748B121E0EE
:1002840030E0B90102C0660F771F9A95E2F7CB01FF
:10029400842728C04BB121E030E0B90102C0660FC9
:1002A400771F9A95E2F7CB01809584238BB9089543
:1002B40045B121E030E0B90102C0660F771F9A957D
:1002C400E2F7CB018095842385B9089548B121E0F4
:1002D40030E0B90102C0660F771F9A95E2F7CB01AF
:1002E4008095842388B908954BB121E030E0B901A9
:1002F40002C0660F771F9A95E2F7CB0184278BB96A
:10030400D6CF45B121E030E0B90102C0660F771FB6
:100314009A95E2F7CB01842BD7CF4BB121E030E0A3
:10032400B90102C0660F771F9A95E2F7CB01842BBF
:100334008BB9BDCF48B121E030E0B90102C0660FEE
:0C034400771F9A95E2F7CB01842BCCCFF9
:10035000AF92BF92CF92DF92FF920F931F93CF93F2
:10036000DF93CDB7DEB72A970FB6F894DEBF0FBE86
:10037000CDBF41E061E089E091E00E94FB0541E0F2
:1003800062E080E20E94A507F12C0E94CD07843430
:1003900091F029E02F1508F043C02AE0F212F5CFC2
:1003A00041E062E087E391E00E94FB0541E062E00A
:1003B00087E291E0E2CF83E08F15F0F5CE01019660
:1003C0006C01AA24AA94AF0CB12C93E0A90EB11C25
:1003D00002E010E0F60161916F01C8010E948308FC
:1003E0000F5F1F4F0A151B05A9F760EE80E090E034
:1003F0000E9483086F2D81E090E00E9483082A9676
:100400000FB6F894DEBF0FBECDBFDF91CF911F9125
:100410000F91FF90DF90CF90BF90AF900C946F083A
:10042000E1E0F0E0EC0FFD1FEF0DF11D8083F39490
:100430008AE20E94CF08A9CF41E062E088E191E022
:100440000E94FB059FEFE3EDF0E39150E040F040A8
:08045000E1F700C00000AACF93
:100458000F931F93CF93DF938C01EB01188241E038
:1004680061E085E491E00E94FB0541E062E080E202
:100478000E94A5070E94CD07843429F198819A30FB
:1004880008F440C09A30B1F741E062E087E391E0B8
:100498000E94FB0541E062E087E291E00E94FB05D3
:1004A80041E062E080E20E94A5072FEF83ED90E330
:1004B800215080409040E1F700C0000018820E945F
:1004C800CD078434D9F68881843038F541E062E07C
:1004D80088E191E00E94FB052FEF83ED90E3215026
:1004E80080409040E1F700C0000041E062E087E210
:1004F80091E00E94FB0541E062E080E20E94A507CE
:100508001882DDCFF801E90FF11D808388818F5FA4
:1005180088838AE20E94CF08ADCF0E946F080E94AC
:0E0528006F0881E0DF91CF911F910F91089530
:100536000E94A00838F00E94A70820F0952311F029
:100546000C94BB080C94CA0811240C94AF080E94A2
:10055600870670F3959FC1F3950F50E0551F629F74
:10056600F001729FBB27F00DB11D639FAA27F00D06
:10057600B11DAA1F649F6627B00DA11D661F829F2D
:100586002227B00DA11D621F739FB00DA11D621F12
:10059600839FA00D611D221F749F3327A00D611D2F
:1005A600231F849F600D211D822F762F6A2F112411
:1005B6009F5750409AF0F1F088234AF0EE0FFF1F44
:1005C600BB1F661F771F881F91505040A9F79E3F9B
:1005D600510580F00C94BB080C94AF085F3FE4F320
:1005E600983ED4F3869577956795B795F795E795F1
:1005F6009F5FC1F7FE2B880F911D9695879597F9FA
:02060600089555
:10060800CF93DF93CDB7DEB765970FB6F894DEBF0B
:100618000FBECDBF1D8A2FEF85EA9EE02150804096
:100628009040E1F700C000000E94080780E090E0D9
:100638000E949908803E11F40E94A801CE010B96F1
:100648000E94A105F82E0FEF080F10E00F5F1F4F53
:1006580081E090E08C0F9D1F080F191FBE016B5E93
:100668007F4FCE0101960E942C028823B9F38D8911
:10067800F816A1F00E946F0841E062E086E691E07A
:100688000E94FB059FEF23ED80E3915020408040BE
:10069800E1F700C000000E946F08E0CFFF2081F062
:1006A8009B8589819813E6CFFE013296DE011C9660
:1006B80004C091918D919813DDCFE017F107C9F728
:0E06C8000E946F0841E062E085E591E0D9CF25
:1006D600CF93C82F60E080E00E941201C4FB66271A
:1006E60060F982E00E941201C5FB662760F983E08B
:1006F6000E941201C6FB662760F984E00E9412017F
:100706006C2F661F6627661F85E00E94120161E056
:1007160081E00E94120182E08A95F1F700C060E054
:1007260081E00E9412018FE891E00197F1F700C085
:1007360000006C2F617082E00E941201C1FB6627E7
:1007460060F983E00E941201C2FB662760F984E02B
:100756000E941201C3FB662760F985E00E94120120
:1007660061E081E00E94120192E09A95F1F700C0E3
:1007760060E081E00E9412018FE891E00197F1F7B5
:0807860000C00000CF910895AE
:10078E00CF93C82F61E080E00E941201C4FB662760
:10079E0060F982E00E941201C5FB662760F983E0D2
:1007AE000E941201C6FB662760F984E00E941201C6
:1007BE006C2F661F6627661F85E00E94120161E09E
:1007CE0081E00E94120182E08A95F1F700C060E09C
:1007DE0081E00E9412018FE891E00197F1F700C0CD
:1007EE0000006C2F617082E00E941201C1FB66272F
:1007FE0060F983E00E941201C2FB662760F984E073
:10080E000E941201C3FB662760F985E00E94120167
:10081E0061E081E00E94120192E09A95F1F700C02A
:10082E0060E081E00E9412018FE891E00197F1F7FC
:08083E0000C00000CF910895F5
:1008460061E080E00E946C0061E081E00E946C0043
:1008560061E082E00E946C0061E083E00E946C002F
:1008660061E084E00E946C0061E085E00E946C001B
:1008760060E081E00E9412012FEF89EF90E02150A5
:1008860080409040E1F700C0000083E00E947005C0
:100896008FE19EE40197F1F700C0000083E00E941B
:1008A60070058FE193E00197F1F700C0000083E047
:1008B6000E94700582E00E94700588E20E946B0328
:1008C60087EC90E00197F1F700C0000088E00E94F5
:1008D6006B0381E00E946B0386E00E946B038FE34B
:1008E6009CE90197F1F700C000008CE00C946B03C3
:1008F600CF93DF939C01E2ECF0E080818F7D8083D3
:1009060080818F7E80838081877F8083C1ECD0E069
:1009160088818B7F888380818460808380818260E8
:100926008083E0ECF0E080818D7F8083C901A0E0C8
:10093600B0E0880F991FAA1FBB1F880F991FAA1F17
:10094600BB1F9C01AD01220F331F441F551F220FF1
:10095600331F441F551F60E074E284EF90E00E944D
:100966006506215031093093C5002093C400888163
:1009760080618883888188608883DF91CF9108951C
:10098600E89409C097FB3EF4909580957095619523
:100996007F4F8F4F9F4F9923A9F0F92F96E9BB27D9
:1009A6009395F695879577956795B795F111F8CF55
:1009B600FAF4BB0F11F460FF1BC06F5F7F4F8F4FC0
:1009C6009F4F16C0882311F096E911C0772321F0B6
:1009D6009EE8872F762F05C0662371F096E8862F4E
:1009E60070E060E02AF09A95660F771F881FDAF7A5
:0A09F600880F9695879597F90895EC
:100A000062E083E10E946C0061E081E10E946C0081
:100A100060E080E10E946C0080E895E20E947B0427
:100A20002FEF83E294EF215080409040E1F700C027
:100A300000000E94C9060E94B5088823E1F30E94C5
:100A400092088C3479F038F4823479F0863499F74E
:100A50000E94F007F0CF823559F0833561F70E948C
:100A60003008E9CF0E942008E6CF0E940008E3CFBB
:060A70000E941008E0CF17
:100A76000F931F93CF9307E811E08EE0C0E00E942A
:100A86005F0780E10E944306811106C080E08C0F5B
:100A9600CF911F910F91089581E10E944306811124
:100AA60002C084E0F4CF82E10E944306811102C0B5
:100AB60088E0EDCF83E10E944306811102C08CE0FD
:100AC600E6CFCF5FC43021F0F80181918F01D7CFF7
:0A0AD6008FEFCF911F910F9108954B
:100AE000CF93C82F60E080E00E9412016C2F6170EC
:100AF00082E00E941201C1FB662760F983E00E9438
:100B00001201C2FB662760F984E00E941201C3FB58
:100B1000662760F985E00E94120161E081E00E9491
:100B2000120182E08A95F1F700C060E081E00E9446
:100B300012018FE891E00197F1F700C00000CF911A
:020B4000089516
:100B4200DF92EF92FF920F931F93CF93DF93D82FF1
:100B5200C92F81E090E00E949908D82E8823A9F03D
:100B62000D2F1C2FEE24EA94E80EF12C83E0E80E00
:100B7200F11CC2E0D0E0CE010E949908F8018193F5
:100B82008F012196CE15DF05B1F78D2DDF91CF9123
:0C0B92001F910F91FF90EF90DF900895ED
:100B9E00CF93C82F682F617080E10E941201C1FBB4
:100BAE00662760F981E10E941201C2FB662760F997
:100BBE0082E10E941201C3FB662760F983E10E9465
:100BCE001201C4FB662760F984E10E941201C5FB85
:100BDE00662760F985E10E941201C6FB662760F95F
:080BEE0086E1CF910C94120185
:100BF6000F931F93CF938C01842F90E4699F800DF0
:100C06001124815480680E946B03EFE8F1E031976C
:100C1600F1F700C00000F8018081882351F0C0E0A0
:100C26000E94C703CF5FF801EC0FF11D808181118F
:0A0C3600F7CFCF911F910F910895A1
:100C400062E080E10E946C0062E081E10E946C0041
:100C500062E082E10E946C0062E083E10E946C002D
:100C600061E084E10E946C0061E085E10E946C001B
:100C700061E086E10E946C0061E087E10E946C0007
:060C80008FE00C945F07F9
:100C8600482F47708695869586958130C9F0B0F0D5
:100C9600823091F429B181E090E0042E02C0880FE1
:100CA600991F0A94E2F730E08223932302C09595B8
:100CB60087954A95E2F7089580E0089523B1EBCF32
:040CC60026B1E9CF9B
:100CCA00A1E21A2EAA1BBB1BFD010DC0AA1FBB1F46
:100CDA00EE1FFF1FA217B307E407F50720F0A21BB8
:100CEA00B30BE40BF50B661F771F881F991F1A9425
:100CFA0069F760957095809590959B01AC01BD014F
:040D0A00CF01089578
:100D0E0057FD9058440F551F59F05F3F71F04795AE
:100D1E00880F97FB991F61F09F3F79F08795089593
:100D2E00121613061406551FF2CF4695F1DF08C0B2
:100D3E00161617061806991FF1CF869571056105CF
:040D4E000894089568
:100D520090917C00907F892B80937C0080917A0017
:100D6200806480937A0080917A0086FDFCCF609146
:100D720078008091790070E0782B80E090E00E940A
:100D8200C30420E030E040EA5BE30E94C608089515
:100D920061E087E10E946C0061E086E10E946C00E4
:100DA20061E085E10E946C0061E084E10E946C00D8
:100DB20060E087E10E94120160E086E10E94120178
:100DC20060E085E10E94120160E084E10C9412016E
:100DD20061E080E10E946C0061E081E10E946C00B0
:100DE20061E082E10E946C0061E083E10E946C009C
:100DF20061E084E10E946C0061E085E10E946C0088
:0E0E020061E086E10E946C0080E00C94CF0558
:100E10000E9420060E94230441E061E080E091E00E
:100E20000E94FB052FEF89E698E121508040904019
:100E3000E1F700C000000E946F082FEF89E698E1FB
:0E0E4000215080409040E1F700C0000008956E
:100E4E004423C1F0FC013081FB012081321314C018
:100E5E00FC013196DB011196415050E04F5F5F4F20
:100E6E00480F591F04C021919D91291305C0E41705
:0C0E7E00F507C9F781E0089580E00895B1
:100E8A00EAE7F0E0808180688083808184608083E3
:100E9A00808182608083808181608083ECE7F0E0DA
:100EAA0080818F77808380818064808380818F7D39
:040EBA008083089594
:100EBE00CF93C82F682F617084E10E941201C1FB8D
:100ECE00662760F985E10E941201C2FB662760F970
:100EDE0086E10E941201C3FB662760F987E1CF917C
:040EEE000C9412014D
:100EF20090917C00907F892B80937C0080917A0076
:100F0200806480937A0080917A0086FDFCCF809184
:0C0F120078002091790090E0922B089567
:100F1E000F931F93CF93FC018081882359F08F018B
:100F2E00C0E00E94C703CF5FF801EC0FF11D808176
:0C0F3E008111F7CFCF911F910F91089502
:100F4A00CF93C82F842F90E4699F800D1124815478
:100F5A0080680E946B038FE891E00197F1F700C067
:0A0F6A0000008C2FCF910C94C703F8
:100F7400DC012C91222371F030E09091C00095FFA8
:100F8400FCCF2093C6003F5FFD01E30FF11D2081DC
:060F94002111F3CF0895C6
:100F9A00CF930E943B058F3FE1F3E82F880FFF0BA9
:100FAA00E459FE4FC0810E943B058F3FE1F78C2F29
:040FBA00CF91089536
:100FBE00092E0394000C11F4882352F0BB0F40F459
:100FCE00BF2B11F460FF04C06F5F7F4F8F4F9F4F99
:020FDE00089574
:100FE00060E087E10E94120161E086E10E94120147
:100FF00060E085E10E94120161E084E10C9412013D
:1010000061E087E10E94120160E086E10E94120126
:1010100061E085E10E94120160E084E10C9412011C
:1010200061E087E10E94120160E086E10E94120106
:1010300060E085E10E94120161E084E10C941201FC
:1010400060E087E10E94120161E086E10E941201E6
:1010500061E085E10E94120160E084E10C941201DC
:1010600060E087E10E94120160E086E10E941201C7
:1010700060E085E10E94120160E084E10C941201BD
:101080000E943B058F3F39F0E82F880FFF0BE45992
:0A109000FE4F808108958BE2089561
:10109A00813041F028F0823011F46AB90895089538
:0810AA0064B9089567B90895C7
:1010B200813041F028F0823011F46BB9089508951F
:0810C20065B9089568B90895AD
:1010CA008A3008F00895E82FF0E0E458FE4F808156
:0410DA000C94CF059E
:1010DE0081E00E946B038FE39FE10197F1F700C05F
:0410EE000000089561
:1010F20080E090E00E94990891E0803E09F090E043
:04110200892F089594
:10110600F999FECF92BD81BD60BDFA9AF99A08950C
:0E1116009091C00095FFFCCF8093C600089515
:0E1124008091C00087FFFCCF8091C600089527
:0E113200F999FECF92BD81BDF89A80B508955F
:0E11400000240A9416161706180609060895CC
:0E114E0000240A9412161306140605060895CE
:0E115C00E894BB2766277727CB0197F9089503
:0C116A008091C000881F8827881F08950E
:0C11760097F99F6780E870E060E0089542
:0A1182000E94000580E090E008954F
:08118C000E94AA020C94DF0787
:061194009FEF80EC0895BE
:04119A000C940000B1
:04119E000C94C703E3
:1011A2004B6579205361666500456E746572204E09
:1011B20065772050617373007061737320746F6F71
:1011C2002073686F727400202020202020202020AD
:1011D200202020202020007061737320746F6F2004
:1011E2006C6F6E6700456E74657220796F75722040
:1011F2005061737300636F72726563742070617300
:0C12020073776F7264004552524F520027
:10120E003132334134353642373839432A3023446C
:0A121E003F065B4F666D7D077F6F92
:051228000E0D0B070F85
:00000001FF
