:100000000C943F000C9479050C9479050C947905B7
:100010000C9479050C9479050C9479050C94790568
:100020000C9479050C9479050C9479050C94790558
:100030000C9479050C9479050C9479050C94790548
:100040000C9479050C9479050C9479050C94790538
:100050000C9479050C9479050C9479050C94790528
:100060000C9479050C9479050110011A000B10010C
:10007000000110000B00011A011F000B1A001124CF
:100080001FBECFEFD8E0DEBFCDBFE8E6F0E040E036
:1000900017C0B591A59135912591059107FD0CC02B
:1000A00095918591EF01F92FE82F05900D92A217F8
:1000B000B307D9F7FE0104C01D92A217B307E1F7F9
:1000C000ED37F40731F70E9474050C946700F8943B
:0200D000FFCF60
:1000D200982F9770869586958695813031F160F0DC
:1000E200823049F4613009F481C06623B9F162308B
:1000F20009F45EC008950895613009F46BC0662367
:10010200D9F16230B9F744B121E030E0B90102C05F
:10011200660F771F9A95E2F7CB01962F909594235D
:1001220094B995B1892B85B90895613009F46AC0F3
:10013200662381F16230F1F647B121E030E0B90186
:1001420002C0660F771F9A95E2F7CB01962F909522
:10015200942397B998B1892B88B908954AB121E0BF
:1001620030E0B90102C0660F771F9A95E2F7CB0122
:10017200809584238AB9089544B121E030E0B90121
:1001820002C0660F771F9A95E2F7CB018095842310
:1001920084B9089547B121E030E0B90102C0660F89
:1001A200771F9A95E2F7CB018095842387B908954A
:1001B2004AB121E030E0B90102C0660F771F9A957B
:1001C200E2F7CB01962F909594239AB99BB1892B94
:1001D2008BB9089544B121E030E0B90102C0660F45
:1001E200771F9A95E2F7CB01842BD2CF4AB121E057
:1001F20030E0B90102C0660F771F9A95E2F7CB0192
:10020200842BB8CF47B121E030E0B90102C0660FBC
:0C021200771F9A95E2F7CB01842BC8CF30
:10021E00982F9770869586958695813001F160F0BE
:10022E00823049F4613009F470C0662359F16230AE
:10023E0009F452C008950895613009F45AC0662336
:10024E0079F16230B9F745B121E030E0B90102C071
:10025E00660F771F9A95E2F7CB0184272DC0613088
:10026E0009F460C0662351F1623021F748B121E0F4
:10027E0030E0B90102C0660F771F9A95E2F7CB0105
:10028E00842728C04BB121E030E0B90102C0660FCF
:10029E00771F9A95E2F7CB01809584238BB9089549
:1002AE0045B121E030E0B90102C0660F771F9A9583
:1002BE00E2F7CB018095842385B9089548B121E0FA
:1002CE0030E0B90102C0660F771F9A95E2F7CB01B5
:1002DE008095842388B908954BB121E030E0B901AF
:1002EE0002C0660F771F9A95E2F7CB0184278BB970
:1002FE00D6CF45B121E030E0B90102C0660F771FBD
:10030E009A95E2F7CB01842BD7CF4BB121E030E0A9
:10031E00B90102C0660F771F9A95E2F7CB01842BC5
:10032E008BB9BDCF48B121E030E0B90102C0660FF4
:0C033E00771F9A95E2F7CB01842BCCCFFF
:10034A00CF93C82F60E080E00E940F01C4FB6627AC
:10035A0060F982E00E940F01C5FB662760F983E01D
:10036A000E940F01C6FB662760F984E00E940F0114
:10037A006C2F661F6627661F85E00E940F0161E0E9
:10038A0081E00E940F0182E08A95F1F700C060E0E7
:10039A0081E00E940F018FE891E00197F1F700C018
:1003AA0000006C2F617082E00E940F01C1FB66277A
:1003BA0060F983E00E940F01C2FB662760F984E0BE
:1003CA000E940F01C3FB662760F985E00E940F01B6
:1003DA0061E081E00E940F0192E09A95F1F700C076
:1003EA0060E081E00E940F018FE891E00197F1F748
:0803FA0000C00000CF9108953E
:10040200CF93C82F61E080E00E940F01C4FB6627F2
:1004120060F982E00E940F01C5FB662760F983E064
:100422000E940F01C6FB662760F984E00E940F015B
:100432006C2F661F6627661F85E00E940F0161E030
:1004420081E00E940F0182E08A95F1F700C060E02E
:1004520081E00E940F018FE891E00197F1F700C05F
:1004620000006C2F617082E00E940F01C1FB6627C1
:1004720060F983E00E940F01C2FB662760F984E005
:100482000E940F01C3FB662760F985E00E940F01FD
:1004920061E081E00E940F0192E09A95F1F700C0BD
:1004A20060E081E00E940F018FE891E00197F1F78F
:0804B20000C00000CF91089585
:1004BA0061E080E00E94690061E081E00E946900D9
:1004CA0061E082E00E94690061E083E00E946900C5
:1004DA0061E084E00E94690061E085E00E946900B1
:1004EA0060E081E00E940F012FEF89EF90E0215038
:1004FA0080409040E1F700C0000083E00E94B00312
:10050A008FE19EE40197F1F700C0000083E00E94AA
:10051A00B0038FE193E00197F1F700C0000083E098
:10052A000E94B00382E00E94B00388E20E94A50103
:10053A0087EC90E00197F1F700C0000088E00E9484
:10054A00A50181E00E94A50186E00E94A5018FE332
:10055A009CE90197F1F700C000008CE00C94A5011A
:10056A0062E080E10E94690062E081E10E94690024
:10057A000E945D02C0E0D0E080E10E945504811132
:10058A0006C0219680E10E9455048823D9F381E1AF
:10059A000E945504811108C02097A9F1219781E191
:1005AA000E9455048823D9F39E01ADECBCEC0E944D
:1005BA0017059C01369527953695279536952795E3
:1005CA0080E3820FA901440F551F220F331F220F08
:1005DA00331F220F331F240F351FAE01421B530B4B
:1005EA0010E3140F41E061E00E94DD04812F0E94B4
:1005FA007B055FEF81EE94E0515080409040E1F737
:0C060A0000C00000B9CF10E380E3ECCF8B
:1006160060E080E00E9469000E94770480E00E940A
:100626004B05C0E0D0E000E010E080E00E945504F9
:10063600813011F4209799F080E00E9455048111D1
:10064600F4CF8FE39CE90197F1F700C0000080E04A
:100656000E9455048111E9CFC0E0D0E0E6CF8FE3D8
:100666009CE90197F1F700C0000080E00E94550464
:100676008130D9F60F5F1F4F802F0E944B05C1E0D6
:04068600D0E0D3CF1E
:10068A000F931F93CF93DF93EC01FB0141508C0131
:10069A00040F111DD8011C9221C041508E01040F74
:1006AA00111D9F01ADECBCEC0E941705969587952C
:1006BA009695879596958795BC01660F771F9C013D
:1006CA00220F331F220F331F220F331F260F371F0C
:1006DA00E21BF30BE05DD801EC93FC013097E9F6DD
:0C06EA00C801DF91CF911F910F9108957E
:1006F6000F931F93CF930BE111E08EE0C0E00E94B1
:10070600960480E10E945504811106C080E08C0F9A
:10071600CF911F910F91089581E10E945504811197
:1007260002C084E0F4CF81E10E945504811102C029
:1007360088E0EDCF81E10E945504811102C08CE072
:10074600E6CFCF5FC43021F0F80181918F01D7CF7A
:0A0756008FEFCF911F910F910895CE
:10076000CF93C82F60E080E00E940F016C2F617072
:1007700082E00E940F01C1FB662760F983E00E94BE
:100780000F01C2FB662760F984E00E940F01C3FBE2
:10079000662760F985E00E940F0161E081E00E9418
:1007A0000F0182E08A95F1F700C060E081E00E94CD
:1007B0000F018FE891E00197F1F700C00000CF91A1
:0207C00008959A
:1007C200CF93C82F682F617080E10E940F01C1FB97
:1007D200662760F981E10E940F01C2FB662760F97A
:1007E20082E10E940F01C3FB662760F983E10E9448
:1007F2000F01C4FB662760F984E10E940F01C5FB6B
:10080200662760F985E10E940F01C6FB662760F941
:0808120086E1CF910C940F0167
:10081A000F931F93CF938C01842F90E4699F800DCF
:10082A001124815480680E94A501EFE8F1E0319714
:10083A00F1F700C00000F8018081882351F0C0E080
:10084A000E940102CF5FF801EC0FF11D8081811136
:0A085A00F7CFCF911F910F91089581
:1008640062E080E10E94690062E081E10E94690027
:1008740062E082E10E94690062E083E10E94690013
:1008840061E084E10E94690061E085E10E94690001
:1008940061E086E10E94690061E087E10E946900ED
:0608A4008FE00C949604A5
:1008AA00482F47708695869586958130C9F0B0F0B5
:1008BA00823091F429B181E090E0042E02C0880FC1
:1008CA00991F0A94E2F730E08223932302C0959598
:1008DA0087954A95E2F7089580E0089523B1EBCF12
:0408EA0026B1E9CF7B
:1008EE0061E080E10E94690061E081E10E9469009F
:1008FE0061E082E10E94690061E083E10E9469008B
:10090E0061E084E10E94690061E085E10E94690076
:0E091E0061E086E10E94690080E00C94E10334
:10092C00CF93C82F682F617084E10E940F01C1FB27
:10093C00662760F985E10E940F01C2FB662760F90A
:10094C0086E10E940F01C3FB662760F987E1CF9116
:04095C000C940F01E7
:100960000E9432040E945D0241E061E080E20E9448
:10097000DD040E9426050E947B052FEF83ED90E3A6
:0E098000215080409040E1F700C00000F2CF0F
:10098E000F931F93CF93FC018081882359F08F0121
:10099E00C0E00E940102CF5FF801EC0FF11D8081D3
:0C09AE008111F7CFCF911F910F91089598
:1009BA00CF93C82F842F90E4699F800D112481540E
:1009CA0080680E94A5018FE891E00197F1F700C0C5
:0A09DA0000008C2FCF910C94010255
:1009E40061E080E00E94690060E081E00E946900AB
:1009F40060E080E00E940F0181E00E945504813094
:060A0400B9F761E0F6CF36
:100A0A00CF930E947B038F3FE1F3E82F880FFF0B00
:100A1A00E050FF4FC0810E947B038F3FE1F78C2F8C
:040A2A00CF910895CB
:100A2E00A29FB001B39FC001A39F700D811D112421
:0E0A3E00911DB29F700D811D1124911D089510
:100A4C000E947B038F3F39F0E82F880FFF0BE0509B
:0A0A5C00FF4F808108958BE208959A
:100A6600813041F028F0823011F46AB90895089572
:080A760064B9089567B9089501
:100A7E00813041F028F0823011F46BB90895089559
:080A8E0065B9089568B90895E7
:100A96008A3008F00895E82FF0E0E05FFE4F80818D
:040AA6000C94E103C8
:100AAA0081E00E94A5018FE39FE10197F1F700C061
:040ABA00000008959B
:100ABE00F999FECF92BD81BD60BDFA9AF99A08955B
:0E0ACE00F999FECF92BD81BDF89A80B50895CA
:0C0ADC006EE088EE93E00E945F05FFCF03
:0A0AE8000E94B00480E090E0089541
:040AF2000C94000060
:040AF6000C94010259
:020AFA0008955D
:020AFC0008955B
:020AFE00089559
:100B00003132334134353642373839432A30234481
:0A0B10003F065B4F666D7D077F6FA7
:050B1A000E0D0B070F9A
:00000001FF
