:100000000C9438000C94CA040C94CA040C94CA04CE
:100010000C94CA040C94CA040C94CA040C94CA0428
:100020000C94CA040C94CA040C94CA040C94CA0418
:100030000C94CA040C94CA040C94CA040C94CA0408
:100040000C94CA040C94CA040C94CA040C94CA04F8
:100050000C94CA040C94CA040C94CA040C94CA04E8
:100060000C94CA040C94CA040100010A00099C0003
:1000700011241FBECFEFD8E0DEBFCDBFE8E6F0E031
:1000800040E017C0B591A59135912591059107FDE7
:100090000CC095918591EF01F92FE82F05900D92F5
:1000A000A217B307D9F7FE0104C01D92A217B30728
:1000B000E1F7EF36F40731F70E94C5040C946000B5
:0400C000F894FFCFE2
:1000C400982F9770869586958695813031F160F0EA
:1000D400823049F4613009F481C06623B9F1623099
:1000E40009F45EC008950895613009F46BC0662375
:1000F400D9F16230B9F744B121E030E0B90102C06E
:10010400660F771F9A95E2F7CB01962F909594236B
:1001140094B995B1892B85B90895613009F46AC001
:10012400662381F16230F1F647B121E030E0B90194
:1001340002C0660F771F9A95E2F7CB01962F909530
:10014400942397B998B1892B88B908954AB121E0CD
:1001540030E0B90102C0660F771F9A95E2F7CB0130
:10016400809584238AB9089544B121E030E0B9012F
:1001740002C0660F771F9A95E2F7CB01809584231E
:1001840084B9089547B121E030E0B90102C0660F97
:10019400771F9A95E2F7CB018095842387B9089558
:1001A4004AB121E030E0B90102C0660F771F9A9589
:1001B400E2F7CB01962F909594239AB99BB1892BA2
:1001C4008BB9089544B121E030E0B90102C0660F53
:1001D400771F9A95E2F7CB01842BD2CF4AB121E065
:1001E40030E0B90102C0660F771F9A95E2F7CB01A0
:1001F400842BB8CF47B121E030E0B90102C0660FCB
:0C020400771F9A95E2F7CB01842BC8CF3E
:10021000982F9770869586958695813001F160F0CC
:10022000823049F4613009F470C0662359F16230BC
:1002300009F452C008950895613009F45AC0662344
:1002400079F16230B9F745B121E030E0B90102C07F
:10025000660F771F9A95E2F7CB0184272DC0613096
:1002600009F460C0662351F1623021F748B121E002
:1002700030E0B90102C0660F771F9A95E2F7CB0113
:10028000842728C04BB121E030E0B90102C0660FDD
:10029000771F9A95E2F7CB01809584238BB9089557
:1002A00045B121E030E0B90102C0660F771F9A9591
:1002B000E2F7CB018095842385B9089548B121E008
:1002C00030E0B90102C0660F771F9A95E2F7CB01C3
:1002D0008095842388B908954BB121E030E0B901BD
:1002E00002C0660F771F9A95E2F7CB0184278BB97E
:1002F000D6CF45B121E030E0B90102C0660F771FCB
:100300009A95E2F7CB01842BD7CF4BB121E030E0B7
:10031000B90102C0660F771F9A95E2F7CB01842BD3
:100320008BB9BDCF48B121E030E0B90102C0660F02
:0C033000771F9A95E2F7CB01842BCCCF0D
:10033C00CF93C82F60E080E00E940801C4FB6627C1
:10034C0060F982E00E940801C5FB662760F983E032
:10035C000E940801C6FB662760F984E00E94080130
:10036C006C2F661F6627661F85E00E94080161E0FE
:10037C0081E00E94080182E08A95F1F700C060E0FC
:10038C0081E00E9408018FE891E00197F1F700C02D
:10039C0000006C2F617082E00E940801C1FB66278F
:1003AC0060F983E00E940801C2FB662760F984E0D3
:1003BC000E940801C3FB662760F985E00E940801D2
:1003CC0061E081E00E94080192E09A95F1F700C08B
:1003DC0060E081E00E9408018FE891E00197F1F75D
:0803EC0000C00000CF9108954C
:1003F400CF93C82F61E080E00E940801C4FB662708
:1004040060F982E00E940801C5FB662760F983E079
:100414000E940801C6FB662760F984E00E94080177
:100424006C2F661F6627661F85E00E94080161E045
:1004340081E00E94080182E08A95F1F700C060E043
:1004440081E00E9408018FE891E00197F1F700C074
:1004540000006C2F617082E00E940801C1FB6627D6
:1004640060F983E00E940801C2FB662760F984E01A
:100474000E940801C3FB662760F985E00E94080119
:1004840061E081E00E94080192E09A95F1F700C0D2
:1004940060E081E00E9408018FE891E00197F1F7A4
:0804A40000C00000CF91089593
:1004AC0061E080E00E94620061E081E00E946200F5
:1004BC0061E082E00E94620061E083E00E946200E1
:1004CC0061E084E00E94620061E085E00E946200CD
:1004DC0060E081E00E9408012FEF89EF90E021504D
:1004EC0080409040E1F700C0000083E00E9474035C
:1004FC008FE19EE40197F1F700C0000083E00E94B9
:10050C0074038FE193E00197F1F700C0000083E0E2
:10051C000E94740382E00E94740388E20E949E0190
:10052C0087EC90E00197F1F700C0000088E00E9492
:10053C009E0181E00E949E0186E00E949E018FE355
:10054C009CE90197F1F700C000008CE00C949E012F
:10055C0062E080E10E94620062E081E10E94620040
:10056C000E945602C0E0D0E080E10E94F6038111A7
:10057C0006C0219680E10E94F6038823D9F381E11D
:10058C000E94F603811108C02097A9F1219781E1FF
:10059C000E94F6038823D9F39E01ADECBCEC0E94BB
:1005AC0075049C0136952795369527953695279594
:1005BC0080E3820FA901440F551F220F331F220F16
:1005CC00331F220F331F240F351FAE01421B530B59
:1005DC0010E3140F41E061E00E944D04812F0E9452
:1005EC00CC045FEF81EE94E0515080409040E1F7F5
:0C05FC0000C00000B9CF10E380E3ECCF9A
:1006080060E080E00E9462000E94180480E00E947E
:100618009C04C0E0D0E000E010E080E00E94F60317
:10062800813011F4209799F080E00E94F60381113F
:10063800F4CF8FE39CE90197F1F700C0000080E058
:100648000E94F6038111E9CFC0E0D0E0E6CF8FE346
:100658009CE90197F1F700C0000080E00E94F603D2
:100668008130D9F60F5F1F4F802F0E949C04C1E094
:04067800D0E0D3CF2C
:10067C000F931F93CF93DF93EC01FB0141508C013F
:10068C00040F111DD8011C9221C041508E01040F82
:10069C00111D9F01ADECBCEC0E94750496958795DD
:1006AC009695879596958795BC01660F771F9C014B
:1006BC00220F331F220F331F220F331F260F371F1A
:1006CC00E21BF30BE05DD801EC93FC013097E9F6EB
:0C06DC00C801DF91CF911F910F9108958C
:1006E800CF93C82F60E080E00E9408016C2F6170F2
:1006F80082E00E940801C1FB662760F983E00E943E
:100708000801C2FB662760F984E00E940801C3FB68
:10071800662760F985E00E94080161E081E00E9497
:10072800080182E08A95F1F700C060E081E00E944C
:1007380008018FE891E00197F1F700C00000CF9120
:02074800089512
:10074A00CF93C82F682F617080E10E940801C1FB16
:10075A00662760F981E10E940801C2FB662760F9F9
:10076A0082E10E940801C3FB662760F983E10E94C7
:10077A000801C4FB662760F984E10E940801C5FBF1
:10078A00662760F985E10E940801C6FB662760F9C1
:08079A0086E1CF910C940801E7
:1007A2000F931F93CF938C01842F90E4699F800D48
:1007B2001124815480680E949E01EFE8F1E0319794
:1007C200F1F700C00000F8018081882351F0C0E0F9
:1007D2000E94FA01CF5FF801EC0FF11D80818111B7
:0A07E200F7CFCF911F910F910895FA
:1007EC00482F47708695869586958130C9F0B0F074
:1007FC00823091F429B181E090E0042E02C0880F80
:10080C00991F0A94E2F730E08223932302C0959556
:10081C0087954A95E2F7089580E0089523B1EBCFD0
:04082C0026B1E9CF39
:1008300061E080E10E94620061E081E10E9462006B
:1008400061E082E10E94620061E083E10E94620057
:1008500061E084E10E94620061E085E10E94620043
:0E08600061E086E10E94620080E00C94A50336
:10086E000F931F93CF93FC018081882359F08F0142
:10087E00C0E00E94FA01CF5FF801EC0FF11D8081FC
:0C088E008111F7CFCF911F910F910895B9
:10089A00CF93C82F842F90E4699F800D112481542F
:1008AA0080680E949E018FE891E00197F1F700C0ED
:0A08BA0000008C2FCF910C94FA017E
:1008C40061E080E00E94620060E081E00E946200DA
:1008D40060E080E00E94080181E00E94F60381301C
:0608E400B9F761E0F6CF58
:1008EA00A29FB001B39FC001A39F700D811D112467
:0E08FA00911DB29F700D811D1124911D089556
:10090800813041F028F0823011F46AB908950895D1
:0809180064B9089567B9089560
:10092000813041F028F0823011F46BB908950895B8
:0809300065B9089568B9089546
:100938008A3008F00895E82FF0E0E050FF4F8081FA
:040948000C94A50363
:10094C0081E00E949E018FE39FE10197F1F700C0C7
:04095C0000000895FA
:10096000F999FECF92BD81BD60BDFA9AF99A0895BA
:0E097000F999FECF92BD81BDF89A80B5089529
:0C097E006EE088EE93E00E94B004FFCF12
:0A098A000E94AE0280E090E00895A4
:040994000C940000BF
:040998000C94FA01C0
:0A099C003F065B4F666D7D077F6F1D
:00000001FF
